:100000000C942A000C943F000C943F000C943F0089
:100010000C943F000C943F000C943F000C943F0064
:100020000C943F000C943F000C943F000C943F0054
:100030000C943F000C943F000C943F000C943F0044
:100040000C943F000C943F000C943F000C943F0034
:100050000C943F0011241FBECFE5D8E0DEBFCDBF1A
:1000600010E0A0E6B0E0EAEBF7E002C005900D92E8
:10007000AC3BB107D9F70E9468020C94DB030C94E7
:100080000000843008F072C0683008F06FC0423061
:1000900008F06CC0813001F130F08230B1F1833072
:1000A00009F44CC00895413059F42AB381E090E03E
:1000B00002C0880F991F6A95E2F7822B8ABB0895C8
:1000C0002AB381E090E002C0880F991F6A95E2F799
:1000D000809582238ABB0895413059F427B381E08B
:1000E00090E002C0880F991F6A95E2F7822B87BBC8
:1000F000089527B381E090E002C0880F991F6A95A8
:10010000E2F78095822387BB0895413059F424B3E8
:1001100081E090E002C0880F991F6A95E2F7822B78
:1001200084BB089524B381E090E002C0880F991F3A
:100130006A95E2F78095822384BB0895413059F493
:1001400021B381E090E002C0880F991F6A95E2F721
:10015000822B81BB089521B381E090E002C0880F1B
:10016000991F6A95E2F78095822381BB08958430B8
:1001700008F072C0683008F06FC0423008F06CC000
:10018000813001F130F08230B1F1833009F44CC09C
:100190000895413059F42BB381E090E002C0880FFC
:1001A000991F6A95E2F7822B8BBB08952BB381E0F0
:1001B00090E002C0880F991F6A95E2F7809582232C
:1001C0008BBB0895413059F428B381E090E002C020
:1001D000880F991F6A95E2F7822B88BB089528B390
:1001E00081E090E002C0880F991F6A95E2F7809540
:1001F000822388BB0895413059F425B381E090E013
:1002000002C0880F991F6A95E2F7822B85BB08957B
:1002100025B381E090E002C0880F991F6A95E2F74C
:100220008095822385BB0895413059F422B381E043
:1002300090E002C0880F991F6A95E2F7822B82BB7B
:10024000089522B381E090E002C0880F991F6A955B
:10025000E2F78095822382BB08958430C0F5683030
:10026000B0F54115510599F1813089F028F08230BF
:10027000C9F0833011F1089589B390E002C09595DB
:1002800087956A95E2F78170FA018083089586B3B5
:1002900090E002C0959587956A95E2F78170FA0122
:1002A0008083089583B390E002C0959587956A9501
:1002B000E2F78170FA018083089580B390E002C074
:1002C000959587956A95E2F78170FA018083089584
:1002D000CF93C82F80FF06C041E064E080E00E9419
:1002E000B70005C040E064E080E00E94B700C1FFB5
:1002F00006C041E065E080E00E94B70005C040E034
:1003000065E080E00E94B700C2FF06C041E066E001
:1003100080E00E94B70005C040E066E080E00E94F7
:10032000B700C3FF06C041E067E080E00E94B7006D
:1003300005C040E067E080E00E94B700CF910895DB
:10034000CF93C82F40E061E081E00E94B70040E019
:1003500062E081E00E94B7008C2F82958F700E942E
:10036000680141E063E081E00E94B7008FE99FE00F
:100370000197F1F700C0000040E063E081E00E94D7
:10038000B7008C2F0E94680141E063E081E00E9489
:10039000B7008FE99FE00197F1F700C0000040E04F
:1003A00063E081E00E94B700CF9108952FE785EBCD
:1003B00091E0215080409040E1F700C0000040E013
:1003C00061E081E00E94B70040E062E081E00E94CD
:1003D000B70082E00E94680141E063E081E00E9492
:1003E000B7008FE99FE00197F1F700C0000040E0FF
:1003F00063E081E00E94B70088E20E94A00190EFD4
:100400009A95F1F78FE00E94A00120EF2A95F1F76D
:1004100081E00E94A0018FE39FE10197F1F700C006
:10042000000086E00E94A0010895CF93C82F41E00C
:1004300061E081E00E94B70040E062E081E00E945C
:10044000B7008C2F82958F700E94680141E063E0B5
:1004500081E00E94B7008FE99FE00197F1F700C0AB
:10046000000040E063E081E00E94B7008C2F0E9412
:10047000680141E063E081E00E94B7008FE99FE0FE
:100480000197F1F700C0000040E063E081E00E94C6
:10049000B700CF9108950F931F93CF938C01C0E0C5
:1004A00003C00E941502CF5FF801EC0FF11D80819F
:1004B0008111F7CFCF911F910F91089581E00E9494
:1004C000A0018FE39FE10197F1F700C000000895BC
:1004D000CF93DF9300D000D01F92CDB7DEB741E0BD
:1004E00064E080E00E94410041E065E080E00E941D
:1004F000410041E066E080E00E94410041E067E0A9
:1005000080E00E94410041E061E081E00E94410002
:1005100041E062E081E00E94410041E063E081E06F
:100520000E94410040E062E083E00E94410040E020
:1005300063E083E00E94410040E064E083E00E94C9
:10054000410040E065E083E00E94410040E066E059
:1005500083E00E9441000E94D60180E690E00E9464
:100560004B022FEF83ED90E3215080409040E1F764
:1005700000C000000E945E0288E690E00E944B02EC
:100580002FEF83ED90E3215080409040E1F700C0D1
:1005900000000E945E02AE014F5F5F4F62E083E0A9
:1005A0000E942D01AE014E5F5F4F63E083E00E9429
:1005B0002D01AE014D5F5F4F64E083E00E942D018D
:1005C000AE014C5F5F4F65E083E00E942D01AE01FC
:1005D0004B5F5F4F66E083E00E942D012FEF89E6BD
:1005E00098E1215080409040E1F700C000008981EF
:1005F000813061F49A81913049F49B81913031F4DA
:100600009C81913019F49D81913019F281111CC0A7
:100610009A81911119C09B81911116C09C819111F1
:1006200013C09D81911110C00E945E0284E790E08A
:100630000E944B022FEF83ED90E3215080409040C9
:10064000E1F700C00000A5CF8130E1F49A8191115B
:1006500019C09B819130B1F49C81913099F49D81B6
:10066000913081F40E945E028CEA90E00E944B027D
:100670002FEF83ED90E3215080409040E1F700C0E0
:10068000000087CF81111CC09A819130C9F49B81F1
:100690009130B1F49C81913099F49D81913081F435
:1006A0000E945E028FE790E00E944B022FEF83EDE5
:1006B00090E3215080409040E1F700C0000069CFF6
:1006C0008130E1F49A81911119C09B81911116C07A
:1006D0009C81913099F49D81913081F40E945E0259
:1006E00089E890E00E944B022FEF83ED90E32150C8
:1006F00080409040E1F700C000004BCF81111CC04A
:100700009A81911119C09B81911116C09C819130E1
:1007100099F49D81911110C00E945E0285E990E0DC
:100720000E944B022FEF83ED90E3215080409040D8
:10073000E1F700C000002DCF81111CC09A819111FA
:1007400019C09B819130B1F49C81913099F49D81C5
:10075000911110C00E945E0285EA90E00E944B0257
:100760002FEF83ED90E3215080409040E1F700C0EF
:1007700000000FCF813009F00CCF8A81811109CFA1
:100780008B81813009F005CF8C81813009F001CF58
:100790008D818111FECE0E945E0280EB90E00E946E
:1007A0004B022FEF83ED90E3215080409040E1F722
:0A07B00000C00000EECEF894FFCF69
:1007BA0077656C636F6D65005245434F474E4954E8
:1007CA00494F4E006861707079206C6966650067F0
:1007DA006F6F6420776F726B00492077617463686A
:1007EA0020796F75007265616C6C79206C6F766523
:1007FA0020796F750049206C6F766520796F7500D6
:0C080A00776F6E64657266756C6C0000A0
:00000001FF
